:020000040000FA
:0A00000002077BC2A6D2B4020B0C6B
:10000B00020A55ED131313541FFEEB131313541F56
:0F001B00FDEEC39D5008EF2EF8E4F60E80EC22A8
:07002B0002080775A6402240
:100033000206E475A20B43A14053F8F343F80122EF
:10004300020AC1EF540FC454F0FEEF54F0C4540F2E
:100053004EFF543325E025E0FEEF54CC1313543FF9
:0F0063004EFF545525E0FEEF54AAC3134EFF2263
:10007300020B58E537242BF8E6053722782830079A
:1000830002782BE475F0011204A20203D22000EBE4
:100093007F2ED2008018EF540F2490D43440D4FF25
:1000A30030040BEF24BFB41A0050032461FFE5387A
:1000B30060021538053BE53B7002053A30070D78C1
:1000C30028E475F0011204A2EF020490020A2E74D0
:1000D30003D2078003E4C207F5378B288A29892ACC
:1000E300E4F538F53AF53BE53860077F201200B1B7
:1000F30080F57539FFC201C200C202C203C205C244
:1001030006C20812007FFF700D3007057F00120042
:10011300C2AF3BAE3A22B4255FC2D5C20412007F00
:10012300FF24D0B40A00501A75F00A783830D50588
:1001330008B6FF0106C6A426F620D5047002D20332
:1001430080D924CFB41A00EF5004C2E5D2040202CE
:10015300C2D20180C6D20080C0D20280BCD2D58078
:10016300BAD20580B47F201200B12002077401B512
:10017300380040F1120076FF1200B10200EAD20803
:10018300D2068095120076FB120076FA120076F9F9
:100193004A4B700679937A037BFF20022EE5386081
:1001A3002A7E008E827583001203EB60060EEE65D5
:1001B3003970F0C2D5EBC0E0EAC0E0E9C0E0EE126E
:1001C3000309D0E0F9D0E0FAD0E0FB1203D2FF60DC
:1001D300AAEBC0E0EAC0E0E9C0E01200B1D0E0243D
:1001E30001F9D0E03400FAD0E0FBE5390460DCD556
:1001F30039D980877BFF7A037905D202809C7910F5
:1002030080027908C206C2088008D2D5790A800420
:10021300790AC2D5E539047002F539E4FAFDFEFF27
:10022300120076FC7B08200113120076FD7B103050
:10023300000A120076FE120076FF7B20EC3382D593
:1002430092D55013C3E43000069FFFE49EFEE420E2
:1002530001039DFDE49CFCE4CBF8C201EC700CCFE0
:10026300CECDCCE824F8F870F38017C3EF33FFEE5C
:1002730033FEED33FDEC33FCEB33FB994002FB0F14
:10028300D8E9EB300105F8D0E0C448B201C0E00A78
:10029300EC4D4E4F78207B0070C2EAB5390040BC6C
:1002A300C0E012030BD0F0D0E0200104C4C0E0C4CE
:1002B300B201C0F012009AD0F0D5F0EB0200EA12BE
:1002C30004B201875302015801584C0154420205FC
:1002D3004F020D44020D49016D4302135501F746C8
:1002E30001F74501F74703B350015C2D01602E016F
:1002F300832B016423018120039C2A011C480000F5
:10030300017B3F3F3F00790AA2D520031430050942
:10031300B910020404B9080104A2D5200602500151
:10032300042002689202B538005034C0E07F2030C8
:1003330003197F30A20272067205500F120362C2C4
:1003430002C206C205C2087F30800F300503E9C030
:10035300E01200B1300503D0E0F9D0E0B538CC307D
:1003630005177F30B9100C1200B17F583004077F96
:10037300788003B908031200B13002057F2D020013
:10038300B17F202008F87F2B2006F322920280CF32
:10039300286E756C6C2900D2011200763001F8C208
:1003A30001783830D50108F602011C2D5043495815
:1003B3001200762403B405004001E49003AE9312C7
:1003C30000A2743A1200A2D203753804020201BBE0
:1003D300010689828A83E0225002E722BBFE02E300
:1003E3002289828A83E49322BB010CE58229F58268
:1003F300E5833AF583E0225006E92582F8E622BB3D
:10040300FE06E92582F8E222E58229F582E5833AB0
:10041300F583E49322EF8DF0A4A8F0CF8CF0A42809
:10042300CE8DF0A42EFE22BC000BBE0029EF8DF072
:1004330084FFADF022E4CCF875F008EF2FFFEE3324
:10044300FEEC33FCEE9DEC984005FCEE9DFE0FD5D3
:10045300F0E9E4CEFD22EDF8F5F0EE8420D21CFEA7
:10046300ADF075F008EF2FFFED33FD400798500610
:10047300D5F0F222C398FD0FD5F0EA22EB9FF5F0F9
:10048300EA9E42F0E99D42F0E89C45F022BB01065A
:1004930089828A83F0225002F722BBFE01F322FAFB
:1004A300E6FB0808E6F925F0F618E6CA3AF622D084
:1004B30083D082F8E4937012740193700DA3A39315
:1004C300F8740193F5828883E4737402936860EF90
:1004D300A3A3A380DF8F2E8D2F8B30AB31AA32A93C
:1004E300331203D2700302059AF534C3648094A0D7
:1004F3004009D3E534648094FE4003753420E52F2E
:10050300D394784002807CAF34EF3395E0FE75F0EE
:1005130064E530A42FF582E5F03EF583E582249867
:10052300F582E583340BF583E493F9E52F13131375
:10053300541F252EFDF8C000E6FA08E6FBE52F540C
:1005430007FCE47EFFA804088005CEC313CE13D8AE
:10055300F9F4FFEEF45AFEEB5FD000A60608F6A806
:1005630005C000E6FA08E6FBE9FEE4A804088005F6
:10057300CEC313CE13D8F9FFEA4EFEEB4FD000A63D
:100583000608F674012533F533E43532F532740683
:10059300252FF52F0204DE22120A03D2AF75EE01D6
:1005A3001200037BFF7A0B7934E4FD1208B8E51BD4
:1005B300451A603DE4F5A753E6FD740A2509F509DC
:1005C300E43508F508E4F50A752BFF752C0B752D3A
:1005D3004485182E85192FFB7A00790A1200D27BE5
:1005E300007A00790AAD091208B8E4F51AF51BD2AE
:1005F300AFE51745166041E4F50A752BFF752C0B23
:10060300752D4485182E85192FFB7A00790A12005F
:10061300D27B007A00790A7D0A1208B8E4F516F550
:1006230017E51564034514700743E602F514F51541
:100633000515E515700205145391FB20A6FD4391A2
:10064300040205B153D9BF43D50443D50543D506A9
:1006530075E34043A50443A50543A50643A680C20D
:1006630094C296C295B294B296B295C2A77F037E06
:10067300007D00DDFEDEFADFF6B2967F037E007DAD
:1006830000DDFEDEFADFF6B2967F037E007D00DD3D
:10069300FEDEFADFF6B2967F037E007D00DDFEDE2E
:1006A300FADFF6B2967F037E007D00DDFEDEFADF21
:1006B300F6B294B2967F037E007D00DDFEDEFADFA4
:1006C300F6B294B2967F037E007D00DDFEDEFADF94
:1006D300F6B2947F037E007D00DDFEDEFADFF6B224
:1006E30094C0E0C0F0C083C082C0D075D000C00009
:1006F300C001C002C003C004C005C006C00775A77F
:1007030020E5F854F0F4440F52F8AF9BEF30E34D7B
:10071300E5496031E5A120E02C300A13854D82853F
:100723004C83E5A3F0054DE54D7007054C8003852B
:10073300A327D5490D300C05300902D2FA120B203C
:10074300800385494BE54A601430F911300B09A841
:100753004EE2F5A3054E800375A300154AD007D0DA
:1007630006D005D004D003D002D001D000D0D0D021
:1007730082D083D0F0D0E032787FE4F6D8FD758163
:10078300600207C202059BE493A3F8E493A340032A
:10079300F68001F208DFF48029E493A3F8540724D8
:1007A3000CC8C333C4540F4420C8834004F4568098
:1007B3000146F6DFE4800B0102040810204080901C
:1007C300098BE47E019360BCA3FF543F30E50954D9
:1007D3001FFEE493A360010ECF54C025E060A84040
:1007E300B8E493A3FAE493A3F8E493A3C8C582C837
:1007F300CAC583CAF0A3C8C582C8CAC583CADFE90C
:10080300DEE780BEC0E0C0F0C083C082C0D075D038
:1008130000C000C001C002C003C004C005C006C0C0
:100823000753C87F53C8FBE51EB40112751E027F30
:1008330000851F267B02E4FDFC120866800AE51E84
:10084300B40305C2A6751E00D007D006D005D00498
:10085300D003D002D001D000D0D0D082D083D0F04A
:10086300D0E03285264985264A85264B8F4E8C4C0F
:100873008D4DEB13920AEBA2E1920BAFA775A72064
:10088300200D03120B47439A0453F80F539BEF4376
:100893009A08300C05300902C2FA30F915E54A60AE
:1008A30011300B09A84EE2F5A3054E8003E4F5A32E
:1008B300154A8FA7228D2B8B288A29892A120A7B16
:1008C3008F2DE4F52C7F51E4FBFD12000EC007C30E
:1008D3007480952DFFE49400C313EF13FD85283135
:1008E300852932852A33D007AB2C1204D8E52C2571
:1008F3002BFF7B007A007951120908052CE52CC3E4
:10090300940840C1228F2E8B2F8A3089317F801229
:100913000AA08F32E52E04FF1200468F33E4FFABAB
:100923002FAA30A9318F827583001203EBFE743432
:100933002FF8A6060FBF10E7E4F544F545FB7A0050
:1009430079327D1402094A8B468A478948E51E702D
:10095300FC751E018D1FE4FFEFC39D5018AB46AA23
:1009630047A9488F827583001203EBFE74002FF8AA
:10097300EEF20F80E3AFA7E4F5A775CFFF75CEF4D2
:10098300D2A643C8048FA722021C0000011E000147
:100993001F00024F0000C109C10CC10DC10AC10BE8
:1009A300014900014A00014B00014E00024C0000C6
:1009B30002180000021600000208000A021A0000D2
:1009C30002140000008F298D2AE52A6005752AFF8D
:1009D3008003E4F52A7F80120AA08F2BE52904FF08
:1009E3001200468F2CE4FF742D2FF8A62A0FBF1098
:1009F300F6E4F53DF53EFB7A00792B7D1402094AB6
:100A030085A728120B73120B87120BAA12002E1242
:100A13000BB1120B7D120B91120ADD120B68120B34
:100A23009A120036120BA38528A722EFB40A077483
:100A33000D120A39740A309811A899B8130CC29888
:100A43003098FDA899C298B811F63099FDC299F56E
:100A53009922C0E0C0D0751600751701B293C28CFD
:100A6300758C00758AE6D28C74642519F519E43502
:100A730018F518D0D0D0E0328B2E8A2F8930E4FFBE
:100A8300AB2EAA2FA930AE070F8E827583001203F7
:100A9300EB70ED1FEF75F006A42402FF228F4612C0
:100AA3000AF6C3EF951DFDEE951CFCD3ED94C8EC3F
:100AB300940040074346408E1C8F1DAF4622C0E082
:100AC30020820BE51B451A7005F51A751B0120835F
:100AD30006751800751900D0E032E591540453915E
:100AE300FB7595F87594067593F875920643910412
:100AF300429122AFA775A71053E67FAD50AC4F4389
:100B0300E6808FA7AE04AF0522E4F528E4FDAF2805
:100B13001209C80528E528C3948040F022751E03F6
:100B2300AFA7E4F5A775CFFF75CEFC43C8048FA725
:100B330022486F77446F657374686973576F726B7C
:100B430000256400E5A1A2E6920CE5F8540C24FF0D
:100B53009209D20D22C0E053917F0550E5507002F7
:100B6300054FD0E032C28CE4F58C758AE6D28C2234
:100B7300E4F5A77597DE7597AD22E4F5A775E34015
:100B830075E1022275A44075D43F75FE0422E4F595
:100B9300A9E5A930E7FB22758E0A758921D28C223B
:100BA30075E68275A8E22275A50375D5FE2275A7A1
:100BB30020759C10220020505020C060601040001F
:100BC3000000000000702070F810F830F87070001A
:100BD30000080080707070F070E0F8F8708870386A
:100BE3008880888870F070F078F88888888888F81A
:100BF300700070200040008000080030008020104A
:100C030080600000000000000040000000000000C1
:100C13003020600000000000000020505078C89091
:100C230020202020200000000088608810308040B1
:100C330008888860601000408808888888908080D1
:100C4300888820109080D888888888888020888821
:100C53008888880840001050002000800008004861
:100C630078800000802000000000000000400000A9
:100C73000000000040201040000000000000205051
:100C8300F88010A0404010A8200000000898200819
:100C93002050F080108888606020F8200808888839
:100CA3008088808080882010A080A8C88888888851
:100CB300802088888850881040801088001070B089
:100CC3007068704088B060309020D0B070F068B029
:100CD30070E08888888888F8402010A80000000009
:100CE300000020005070204000401070F800F80011
:100CF30010A82010109008F0207078000040001019
:100D0300106888F08088F0F0B8F82010C080A8A898
:100D130088F088F070208888A82050204040100078
:100D2300000008C8809888E088C82010A020A8C8C0
:100D3300888898C880408888885088108020081048
:100D43000000000000000000F80840A8004010A8C0
:100D53002060000020C8202008F808884088086028
:100D63006020F82020A8F888808880808888201058
:100D7300A08088988880A8A008208888A850204050
:100D830040201000000078888088F8407888201080
:100D9300C020A88888F0788070408888A8207820B0
:100DA30040201000000000000000000050F0989068
:100DB3000020202020200060408820408810888860
:100DC300408810602010004000A8888888908080A8
:100DD3008888209090808888888090900820885008
:100DE300A8882080401010000000888888888040F0
:100DF30008882090A0208888888008800848985018
:100E0300A85008404020100000000000000020000F
:100E1300502018680010400000400060807070F897
:100E2300701070704070600040080080207088F07F
:100E330070E0F8807088706088F8888870806888AF
:100E4300F0207020508820F870087000FC0078F0C3
:100E530070787040708870609070888870800880A7
:100E6300F0306820508870F83020600000000000E7
:100E7300000000000000000000000000000000006F
:100E8300000000000000000000000000000000005F
:100E9300000000000000000000000000000000004F
:100EA300000000000000000000000000000000003F
:100EB300000000000000000000000000000000002F
:100EC300000000000000000000000000000000001F
:050ED30000000000001A
:00000001FF
