:020000040000FA
:10000000020FEEC0E0C083C08253917F9002FEE0F9
:1000100004F070069002FDE004F0D082D083D0E0BE
:0100200032AD
:0F002300020A03C2DED2DE220210E21213F8221A
:10003300020DFD75A20B43A14053F8F343F80122CF
:100043000211FFE4F5A775E34075E10375E20322AE
:100053000211A6E59154045391FB7595F875940626
:100063007593F875920643910442912243981022A6
:10007300020003E50824C9F582E43402F583E005B0
:1000830008229002C63007039002C9E475F00112FA
:10009300080B0206732000E97F2ED2008018EF546C
:1000A3000F2490D43440D4FF30040BEF24BFB41A90
:1000B3000050032461FFE50960021509050CE50CF6
:1000C3007002050B30070E9002C6E475F0011208AA
:1000D3000BEF0207F902002E7403D2078003E4C278
:1000E30007F5089002C6120822E4F509F50BF50C92
:1000F300E50960077F201200B980F5750AFFC20188
:10010300C200C202C203C205C206C208120085FFB2
:10011300700D3007057F001200CAAF0CAE0B22B47E
:10012300255FC2D5C204120085FF24D0B40A005053
:100133001A75F00A780930D50508B6FF0106C6A47A
:1001430026F620D5047002D20380D924CFB41A0036
:10015300EF5004C2E5D2040202CBD20180C6D20022
:1001630080C0D20280BCD2D580BAD20580B47F20B1
:100173001200B92002077401B5090040F11200769C
:10018300FF1200B90200F3D208D20680951200765E
:10019300FB120076FA120076F94A4B7006799C7AC4
:1001A300037BFF20022EE509602A7E008E82758381
:1001B3000012068C60060EEE650A70F0C2D5EBC025
:1001C300E0EAC0E0E9C0E0EE120312D0E0F9D0E0CB
:1001D300FAD0E0FB120673FF60AAEBC0E0EAC0E0CE
:1001E300E9C0E01200B9D0E02401F9D0E03400FA0C
:1001F300D0E0FBE50A0460DCD50AD980877BFF7A6F
:1002030003790ED202809C791080027908C206C25B
:10021300088008D2D5790A8004790AC2D5E50A0490
:100223007002F50AE4FAFDFEFF120076FC7B08205B
:100233000113120076FD7B1030000A120076FE12C5
:100243000076FF7B20EC3382D592D55013C3E43084
:1002530000069FFFE49EFEE42001039DFDE49CFC59
:10026300E4CBF8C201EC700CCFCECDCCE824F8F887
:1002730070F38017C3EF33FFEE33FEED33FDEC3342
:10028300FCEB33FB994002FB0FD8E9EB300105F897
:10029300D0E0C448B201C0E00AEC4D4E4F78207B59
:1002A3000070C2EAB50A0040BCC0E0120314D0F0EB
:1002B300D0E0200104C4C0E0C4B201C0F01200A227
:1002C300D0F0D5F0EB0200F312082B019053020A91
:1002D3005801614C015D42020E4F02164402164959
:1002E300017643021C550200460200450200470303
:1002F300BC5001652D01692E018C2B016D23018AF0
:100303002003A52A012548000001843F3F3F0079CF
:100313000AA2D5200314300509B910020404B90850
:100323000104A2D52006025001042002689202B5FE
:1003330009005034C0E07F203003197F30A20272DD
:10034300067205500F12036BC202C206C205C20831
:100353007F30800F300503E9C0E01200B930050398
:10036300D0E0F9D0E0B509CC3005177F30B9100CD7
:100373001200B97F583004077F788003B90803124D
:1003830000B93002057F2D0200B97F202008F87FD5
:100393002B2006F322920280CF286E756C6C290005
:1003A300D2011200763001F8C201780930D5010874
:1003B300F60201252D504349581200762403B40553
:1003C300004001E49003B7931200AA743A1200AA02
:1003D300D20375090402020AE49002C5F0C2A29096
:1003E3000037F0A3F090005AF0A3F01212A6C294C3
:1003F300D2AFE4900272F0A3F0900270E0FEA3E0AB
:10040300FFC39480EE64809480501B7BFF7A0F7946
:1004130024AD07120F57900271E004F070DB9002D5
:1004230070E004F080D3E4900017F0A3F0A3F0A3EE
:10043300F0A3F0900276F0A3F0E490026EF0A3F044
:10044300900277E0C4F8540FC868FF900276E0C4C6
:1004530054F048FE748A2FF58274003EF583C083FE
:10046300C08290026EE0FEA3E0FFD082D08325829B
:10047300F582E5833EF583E4F0743D2FF582740045
:100483003EF583E4F074272FF58274003EF583E490
:10049300F074FF900020F0A3F090005CF0A3F090C4
:1004A300026FE004F0700690026EE004F090026EBA
:1004B300E07004A3E064107087900277E004F070AA
:1004C30006900276E004F0900276E07004A3E06404
:1004D3001E600302043C90005CE0FFA3E090002355
:1004E300CFF0A3EFF0900050E0B4020DB2947BFF85
:1004F3007A0F79427D32120F57900023E0FEA3E07A
:10050300FF90005CE06E7003A3E06F60121208516D
:1005130090005CE0FFA3E0900023CFF0A3EFF09006
:100523000025E07004A3E0640170BA900025F0A3F5
:10053300F0900274F0A3F0C3900275E0940F900260
:1005430074E064809480509DE4900270F0A3F09076
:100553000270E0FEA3E0FFC39410EE648094804039
:1005630003020662900020E07004A3E06401707847
:1005730074272FF974003EFA7B01C003C002C00147
:100583009002C974FFF0A3740FF0A37454F09002A7
:1005930074E0FEA3E0FF900038E02FFF900037E007
:1005A3003EFEEFC4F8540FC868FFEEC454F048FE93
:1005B30074AA2FF58274FF3EF583C083C082900234
:1005C30070E0FEA3E0D082D0832582F582E5833EEE
:1005D300F583E09002CCF0D001D002D0031200DB0F
:1005E3007B017A0079278059900274E0FEA3E0FF33
:1005F300900038E02FFF900037E03EFEEFC4F85440
:100603000FC868FFEEC454F048FE74AA2FF5827435
:10061300FF3EF583C083C082900270E0FEA3E0FF3B
:10062300D082D0832582F582E5833EF583E0FD7495
:100633003D2FF58274003EF583EDF07B017A00795E
:100643003D900274A3E075F008A4FD120F579002C9
:1006530071E004F07006900270E004F0020552901D
:100663000275E004F07006900274E004F002053AAB
:10067300BB010689828A83E0225002E722BBFE0285
:10068300E32289828A83E49322BB010CE58229F564
:1006930082E5833AF583E0225006E92582F8E622D3
:1006A300BBFE06E92582F8E222E58229F582E5838D
:1006B3003AF583E49322EF8DF0A4A8F0CF8CF0A455
:1006C30028CE8DF0A42EFE22C5F0F8A3E028F0C5B5
:1006D300F0F8E582158270021583E038F02275F098
:1006E30008758200EF2FFFEE33FECD33CDCC33CC34
:1006F300C58233C5829BED9AEC99E58298400CF54F
:1007030082EE9BFEED9AFDEC99FC0FD5F0D6E4CE7C
:10071300FBE4CDFAE4CCF9A88222B800C1B90059B0
:10072300BA002DEC8BF084CFCECDFCE5F0CBF9787D
:1007330018EF2FFFEE33FEED33FDEC33FCEB33FB11
:1007430010D703994004EB99FB0FD8E5E4F9FA229B
:100753007818EF2FFFEE33FEED33FDEC33FCC93396
:10076300C910D7059BE99A4007EC9BFCE99AF90F5E
:10077300D8E0E4C9FAE4CCFB2275F010EF2FFFEECA
:1007830033FEED33FDCC33CCC833C810D7079BEC15
:100793009AE899400AED9BFDEC9AFCE899F80FD58D
:1007A300F0DAE4CDFBE4CCFAE4C8F922EB9FF5F0F0
:1007B300EA9E42F0E99D42F0E89C45F022ECF0A36A
:1007C300EDF0A3EEF0A3EFF022EC8EF0A4CCC5F095
:1007D300CCCDF8EFA4CEC5F02DFDE43CFCE8A42E6F
:1007E300C8C5F03DFDE43CFCEFA4FFE5F028FEE4C2
:1007F3003DFDE43CFC22BB010689828A83F0225042
:1008030002F722BBFE01F322F8E0FBA3A3E0F925E4
:10081300F0F0E582158270021583E0FA38F022EBDE
:10082300F0A3EAF0A3E9F022D083D082F8E4937036
:1008330012740193700DA3A393F8740193F5828846
:1008430083E4737402936860EFA3A3A380DF900033
:100853005CE07004A3E06401600302093C9002744D
:10086300F0A3F0E4900270F0A3F0900270E0FEA316
:10087300E0FFC39410EE648094804003020919746E
:10088300272FF974003EFA7B01C003C002C0019018
:1008930002C974FFF0A3740FF0A37454F0900274B0
:1008A300E0FEA3E0FF900038E02FFF900037E03E2A
:1008B300FEEFC4F8540FC868FFEEC454F048FE744A
:1008C300AA2FF58274FF3EF583C083C08290027025
:1008D300E0FEA3E0D082D0832582F582E5833EF556
:1008E30083E09002CCF0D001D002D0031200DB7B76
:1008F300017A007927900274A3E075F008A4FD1231
:100903000F57900271E004F0600302086D900270CB
:10091300E004F002086D900275E004F070069002A6
:1009230074E004F0C3900275E0940F900274E064E5
:1009330080948050030208662290005CE0F4700308
:10094300A3E0F46003020A02900274F0A3F0E490BF
:100953000270F0A3F0900274E0FEA3E0FF90003871
:10096300E02FFF900037E03EFEEFC4F8540FC86855
:10097300FFEEC454F048FE74AA2FF58274FF3EF5CF
:1009830083C083C082900270E0FEA3E0FFD082D0D8
:10099300832582F582E5833EF583E0FD743D2FF5E3
:1009A3008274003EF583EDF07B017A00793D90027D
:1009B30074A3E075F008A4FD120F57900271E004D0
:1009C300F07006900270E004F0C3900271E094109E
:1009D300900270E06480948050030209589002757D
:1009E300E004F07006900274E004F0C3900275E036
:1009F300940F900274E064809480500302095122A2
:100A0300C0E0C083C082C0D075D000C000C004C0A5
:100A130005C006C007209803020B1D90027EE0FD6F
:100A2300700490001FF0C29890001CE599F0C390E9
:100A3300005BE0941090005AE064809480504D90E5
:100A4300001CE0FC900038E0C4F8540FC868FF9025
:100A53000037E0C454F048FE748A2FF58274003ED8
:100A6300F583C083C08290005AE0FEA3E0D082D019
:100A7300832582F582E5833EF583ECF090005BE00D
:100A830004F0700690005AE004F08060900038E0B3
:100A930004F07006900037E004F090005AE4F0A3ED
:100AA300F090001CE0FC900038E0C4F8540FC868D4
:100AB300FF900037E0C454F048FE748A2FF5827427
:100AC300003EF583C083C08290005AE0FEA3E0D0CD
:100AD30082D0832582F582E5833EF583ECF0900096
:100AE3005BE004F0700690005AE004F0EDC394401C
:100AF300502090001CE0FF90001FE0247FF582E46B
:100B03003402F583EFF090027EE004F090001FE0E2
:100B130004F0900025E4F0A304F0D007D006D0053C
:100B2300D004D000D0D0D082D083D0E0329002EE77
:100B33001207C0E47F99FEFDFC9002EEE0F8A3E00B
:100B4300F9A3E0FAA3E0FBD31207AF50099002F236
:100B53007401F0020C43E47F797E0AFDFC9002EEFF
:100B6300E0F8A3E0F9A3E0FAA3E0FBC31207AF4068
:100B73001FE47FA57E0BFDFC9002EEE0F8A3A3A388
:100B8300E0D31207AF50099002F27402F0020C4353
:100B9300E47F4F7E09FDFC9002EEE0F8A3E0F9A3A9
:100BA300E0FAA3E0FBC31207AF401EE47F7B7E0A9B
:100BB300FDFC9002EEE0F8A3A3A3E0D31207AF502D
:100BC300089002F27403F08077E47FDC7E05FDFC7D
:100BD3009002EEE0F8A3E0F9A3E0FAA3E0FBC3126E
:100BE30007AF401EE47F087E07FDFC9002EEE0F8AD
:100BF300A3A3A3E0D31207AF50089002F27404F04A
:100C0300803EE47F267E07FDFC9002EEE0F8A3E041
:100C1300F9A3E0FAA3E0FBC31207AF401EE47F523F
:100C23007E08FDFC9002EEE0F8A3A3A3E0D3120735
:100C3300AF50089002F27405F08005E49002F2F0E0
:100C43009002F2E0FF229002CCEFF0A3EDF0A3EBD1
:100C5300F09002CFE0FBA3E0FAA3E0F91206737071
:100C630003020D269002D2F0C3648094A04008E0F2
:100C7300D3648094FE40069002D27420F09002CD9B
:100C8300E0D394784003020D129002D2E0FF339533
:100C9300E0FE9002CEE075F064A42FF582E5F03E0D
:100CA300F583E582246DF582E583341CF583E493B3
:100CB300F99002CDE0FF131313541FFE9002CCE012
:100CC3002EFDF8C000E6FA08E6FBEF5407FCE47ECD
:100CD300FFA804088005CEC313CE13D8F9F4FFEEA2
:100CE300F45AFEEB5FD000A60608F6A805C000E69E
:100CF300FA08E6FBE9FEE4A804088005CEC313CE98
:100D030013D8F9FFEA4EFEEB4FD000A60608F69083
:100D130002D0E475F0011206CB9002CDE02406F078
:100D2300020C54224202F900004102FB004102FC82
:100D3300004202FD0000C109C10CC10DC10AC10B73
:100D43004102F3004102F4004102F5004102F800C0
:100D53004202F600004C007E0EB90EC80ED50EE21C
:100D63000EF20F0144026A0F120F1B420020000013
:100D730042005C0000480052000000000000000038
:100D830050006E00000000000000000000000000A2
:100D930000000050005E00000000000000000000A2
:100DA30000000000000041004D0042005A000042D4
:100DB3000037000042003B000050003D00000000EF
:100DC3000000000000000000000000004202740068
:100DD30000420015000042026E0000420270000053
:100DE300420025000041027E0041001F0041002215
:100DF300004100140141001C0000C0E0C0F0C083AA
:100E0300C082C0D075D000C000C001C002C003C002
:100E130004C005C006C00775A720E5F854F0F444E4
:100E23000F52F8AF9BEF30E3729002F3E0604AE5B4
:100E3300A120E045300A1E9002F6E0FEA3E0F58211
:100E43008E83E5A3F09002F7E004F0700E9002F6B3
:100E5300E004F080069002C4E5A3F09002F3E014EE
:100E6300F0E0700D300C05300902D2FA1213B58090
:100E7300089002F3E09002F5F09002F4E0601C3079
:100E8300F919300B0D9002F8E0F8E2F5A3E004F055
:100E9300800375A3009002F4E014F0D007D006D0CD
:100EA30005D004D003D002D001D000D0D0D082D05E
:100EB30083D0F0D0E032302E204E6F726D616C2003
:100EC3004D6F646500312E2049646C65204D6F645D
:100ED3006500322E2053746F70204D6F64650033AC
:100EE3002E2053757370656E64204D6F64650034F6
:100EF3002E20536E6F6F7A65204D6F646500352E1B
:100F03002053687574646F776E204D6F6465002A93
:100F13004163746976652A002A57616B6575702A87
:100F230000202020202020202020202020202020DE
:100F33002020202020202020202020202020004EA0
:100F43004F52544820574153205052455353454420
:100F5300002578009002C9EDF09002C6EBF0A3EAF9
:100F6300F0A3E9F01213249002CBEFF0E49002CA4D
:100F7300F09002CAE0FF901ACD93FE740D2FF8A6ED
:100F8300069002CAE004F0E0B410E6E49002CAF06E
:100F93007F0D7B707D1012137FC0079002CBE0FFA3
:100FA300C374809FFFE49400C313EF13FD9002C644
:100FB300E0F9A3E0FAA3E09002CFC9F0A3EAF0A31B
:100FC300E9F09002CAE0FBD007120C499002C9E095
:100FD300FFA3E02FFF7B007A00790D1211479002E7
:100FE300CAE004F0E0C3940840A622787FE4F6D870
:100FF300FD7581210210350203DBE493A3F8E4932A
:10100300A34003F68001F208DFF48029E493A3F8F8
:101013005407240CC8C333C4540F4420C88340046A
:10102300F456800146F6DFE4800B01020408102029
:101033004080900D27E47E019360BCA3FF543F30B2
:10104300E509541FFEE493A360010ECF54C025E0CD
:1010530060A840B8E493A3FAE493A3F8E493A3C885
:10106300C582C8CAC583CAF0A3C8C582C8CAC58316
:10107300CADFE9DEE780BE9002C3E09002F3F0A38B
:10108300F0A3F09002F8EFF0AF059002F6ECF0A3B6
:10109300EFF0EB13920AEBA2E1920BAFA775A72037
:1010A300200D0312140C439A0453F80F539BEF4380
:1010B3009A08300C05300902C2FA30F91F9002F485
:1010C300E06019300B0D9002F8E0F8E2F5A3E004BC
:1010D300F08003E4F5A39002F4E014F08FA722C09C
:1010E300E0C0F0C083C082C0D075D000C000C00192
:1010F300C002C003C004C005C006C00753C87F5365
:10110300C8FB9002FBE0B401157402F07F00A3E07A
:101113009002C3F07B02E4FDFC12107A800B900274
:10112300FBE0B40304C2A6E4F0D007D006D005D098
:1011330004D003D002D001D000D0D0D082D083D04D
:10114300F0D0E0329002CCEFF0A3EBF0A3EAF0A3EF
:10115300E9F07F801212E99002D0EFF09002CCE028
:1011630004FF1213539002D1EFF0E4FF9002CDE09D
:10117300FBA3E0FAA3E0F98F8275830012068CFECD
:1011830074D22FF582E43402F583EEF00FEFB4103E
:10119300DBE49002E2F0A3F07B017A0279D07D14C4
:1011A300021255C0E0C0F0C083C082C0D075D00029
:1011B300C000C001C002C003C004C005C006C00710
:1011C300B294C2EDAFBDAEBE7C0C7DE41207CCE49D
:1011D3007BFF7A03F9F812071D120B30900050EFD2
:1011E300F0D007D006D005D004D003D002D001D070
:1011F30000D0D0D082D083D0F0D0E032C0E0C0F0B5
:10120300C083C082C0D075D000C000C004C005C078
:1012130006C007900020E0FEA3E0FF7CFF7DFF12E5
:1012230006B9900020EEF0A3EFF090005CE0FEA37F
:10123300E0FF1206B990005CEEF0A3EFF0D007D008
:1012430006D005D004D000D0D0D082D083D0F0D047
:10125300E0329002E4EBF0A3EAF0A3E9F09002FBA2
:10126300E070FA9002FB7401F0A3EDF0E4FFEFC32A
:101273009D501D9002E4E0FBA3E0FAA3E0F98F8206
:1012830075830012068CFE74002FF8EEF20F80DED9
:10129300AFA7E4F5A775CFFF75CEF4D2A643C80474
:1012A3008FA7229002C6E5A7F012144A12141D124A
:1012B300142D12145E12143D1200461213E212147E
:1012C300681213CC12145412147112147812147F6E
:1012D30012006F1200561200261200361214869066
:1012E30002C6E0F5A7229002E4EFF012139DAD07CA
:1012F300AC069002F9E0FEA3E0FFC3ED9FFFEC9E76
:10130300FED3EF94C8EE940040119002E4E0444011
:10131300F0AF059002F9ECF0A3EFF09002E4E0FFE8
:10132300229002CCEBF0A3EAF0A3E9F0E4FF9002F1
:10133300CCE0FBA3E0FAA3E0F9AE070F8E8275833E
:101343000012068C70E81FEF75F006A42402FF223A
:10135300EF540FC454F0FEEF54F0C4540F4EFF5437
:101363003325E025E0FEEF54CC1313543F4EFF54D6
:101373005525E0FEEF54AAC3134EFF22AE05EE132C
:101383001313541FFEEB131313541FFDEEC39D5091
:1013930008EF2EF8E4F60E80EC22AFA775A71053E2
:1013A300E67F9002FDE0FCA3E043E6808FA7AE0456
:1013B300FF229002FB7403F0AFA7E4F5A775CFFFFC
:1013C30075CEFC43C8048FA722AF885388AF758CB2
:1013D30001758D96EF5440FEEF54104E42882275EE
:1013E300B381E4F5B275BB0D75DF3F75BC0875B904
:1013F3008143E88022EFB40A083099FDC2997599B8
:101403000D3099FDC2998F9922E5A1A2E6920CE5D0
:10141300F8540C24FF9209D20D227580FF75A47233
:1014230075F1FF75D40F75FE04227590FF75A5FB4A
:1014330075F27F75D50E75EDFF2275A720759C108B
:1014430075A72075CC0922E4F5A77597DE7597ADCE
:1014530022758E087589204388402275A64975A791
:101463002075CC0822E4F5A9E5A930E7FB2253F760
:101473007F75DA422253F77F75DB4A2253F77F7574
:10148300DC4A2275E6EA75A872220000000000001B
:10149300000000000000000000007FFFFFFFFFFFCF
:1014A300FFFFFFFFFFFFFFFFFFFE40000000000004
:1014B30000000000000000000002400000000000E7
:1014C30000000000000000000002400000000000D7
:1014D30000000000000000000002400000000000C7
:1014E30000000000000000000002400000000000B7
:1014F30000000000000000000002400000000000A7
:101503000000000000000000000240000000000096
:101513000000000000000000000240000000000086
:101523000000000000000000000240000000000076
:101533000000000000000000000240000000000066
:1015430000800000000018000002400000000000BE
:10155300080007FFE0000600000240000000000052
:10156300C0007FFFFE000380000240000000000770
:101573000003FFFFFF0003E000024000000000380B
:10158300001FFFFFFF8003E000024000000001E0B6
:10159300003FFFFFFF8003F00002400000000F80C8
:1015A30000FFFFFFFF8007F80002400000003E003D
:1015B30001FFFFFFFE001FF8000240000000FC00D7
:1015C30003FFFFFFFF80FFF8000240000003F80065
:1015D30007FFFFFFFFFFFFF8000240000007F000D6
:1015E30007FFF8003FFFFFF800024000001FF00074
:1015F30007F00000007FFFF800024000003FF0000A
:1016030003C00000000FFFF000024000007FF00065
:1016130001F000000003FFE00002400000FFF800BB
:10162300007FFF800001FFC00002400001FFFC00BB
:1016330000027FF00000FF800002400003FFFF0074
:101643000000003C0000FF000002400007FFFFE035
:10165300000000FE0000FE000002400007FFFFFF45
:101663008001FFFE0000F8000002400007FFFFFFBB
:10167300FFFFFFFE0001F0000002400007FFF87FBC
:10168300FFFFFFFE0003C0000002400007FFE0076A
:10169300FFFFFFFC000700000002400007FF800F70
:1016A300FFFFFFF0001C00000002400003FF001FCB
:1016B300FFFFFFE0006000000002400003FE000F98
:1016C300FFFFFF80010000000002400001FC000753
:1016D300FFFFFC000000000000024000007C00014E
:1016E300FFFFC0000000000000024000001E0000D9
:1016F3000BE0000000000000000240000007800033
:101703000000000000000000000240000000600034
:101713000000000000000000000240000000000084
:101723000000000000000000000240000000000074
:101733000000000000000000000240000000000064
:1017430000000000000000000002400007C210215A
:10175300F1F888008060F8F800024000044210218C
:101763001108C8008060888800024000040210212C
:101773000108C80080908880000240000702102101
:101783000108E800809088E00002400001C21021B7
:101793000108A8008090F8380002400000421021A0
:1017A3000108B80080908808000240000042102120
:1017B3000108980081F888080002400004421021C3
:1017C30011089800810888880002400007C21F2181
:1017D300F1F88800F908F8F8000240000000000062
:1017E30000000000000000000002400000000000B4
:1017F30000000000000000000002400000000000A4
:101803000000000000000000000240000000000093
:101813000000000000000000000240000000000083
:101823000000000000000000000240000000000073
:101833000000000000000000000240000000000063
:101843000000000000000000000240000000000053
:101853000000000000000000000240000000000043
:101863000000000000000000000240000000000033
:101873000000000000000000000240000000000023
:101883000000000000000000000240000000000013
:101893000000000000000000000240000000000003
:1018A30000000000000000000002400000000000F3
:1018B30000000000000000000002400000000000E3
:1018C30000000000000000000002400000000000D3
:1018D30000000000000000000002400000000000C3
:1018E30000000000000000000002400000000000B3
:1018F30000000000000000000002407FFFFFFFFF28
:10190300FFFFFFFFFFFFFFFFFC024040000000005E
:10191300000000000000000004024040000000003E
:10192300000000000000000004024040000000002E
:10193300000000000000000004024040000000001E
:10194300000000000000000004024040000000000E
:1019530000000000000000000402404000000000FE
:1019630000000000000000000402404000000000EE
:1019730000000000000000000402404000000000DE
:1019830000000000000000000402404000000000CE
:1019930000000000000000000402404000000000BE
:1019A30000000000000000000402404000000000AE
:1019B300000000000000000004024040000000009E
:1019C300000000000000000004024040000000008E
:1019D300000000000000000004024040000000007E
:1019E300000000000000000004024040000000006E
:1019F300000000000000000004024040000000005E
:101A0300000000000000000004024040000000004D
:101A1300000000000000000004024040000000003D
:101A2300000000000000000004024040000000002D
:101A3300000000000000000004024040000000001D
:101A4300000000000000000004024040000000000D
:101A530000000000000000000402404000000000FD
:101A630000000000000000000402404000000000ED
:101A730000000000000000000402404000000000DD
:101A830000000000000000000402404000000000CD
:101A930000000000000000000402404000000000BD
:101AA30000000000000000000402404000000000AD
:101AB300000000000000000004024040000000009D
:101AC300000000000000000004024040000000008D
:101AD300000000000000000004024040000000007D
:101AE300000000000000000004024040000000006D
:101AF300000000000000000004024040000000005D
:101B0300000000000000000004024040000000004C
:101B1300000000000000000004024040000000003C
:101B2300000000000000000004024040000000002C
:101B3300000000000000000004024040000000001C
:101B4300000000000000000004024040000000000C
:101B530000000000000000000402404000000000FC
:101B630000000000000000000402404000000000EC
:101B730000000000000000000402404000000000DC
:101B830000000000000000000402404000000000CC
:101B930000000000000000000402404000000000BC
:101BA30000000000000000000402404000000000AC
:101BB300000000000000000004024040000000009C
:101BC300000000000000000004024040000000008C
:101BD30000000000000000000402407FFFFFFFFF41
:101BE300FFFFFFFFFFFFFFFFFC02400000000000BC
:101BF30000000000000000000002400000000000A0
:101C0300000000000000000000024000000000008F
:101C1300000000000000000000024000000000007F
:101C2300000000000000000000024000000000006F
:101C3300000000000000000000024000000000005F
:101C4300000000000000000000024000000000004F
:101C5300000000000000000000024000000000003F
:101C6300000000000000000000027FFFFFFFFFFFF5
:101C7300FFFFFFFFFFFFFFFFFFFE0000000000006C
:101C8300000000000000000000000020505020C0B1
:101C930060601040000000000000702070F810F831
:101CA30030F870700000080080707070F070E0F819
:101CB300F8708870388880888870F070F078F888B9
:101CC30088888888F8700070200040008000080031
:101CD3003000802010806000000000000000400001
:101CE3000000000000302060000000000000002021
:101CF300505078C8902020202020000000008860E9
:101D03008810308040088888606010004088088808
:101D13008888908080888820109080D888888888D8
:101D23008880208888888888084000105000200018
:101D33008000080048788000008020000000000038
:101D430000004000000000000040201040000000A0
:101D53000000002050F88010A0404010A820000090
:101D630000089820082050F080108888606020F8D0
:101D730020080888888088808080882010A080A818
:101D8300C888888888802088888850881040801078
:101D930088001070B07068704088B060309020D0B8
:101DA300B070F068B070E08888888888F8402010A8
:101DB300A8000000000000200050702040004010E8
:101DC30070F800F80010A82010109008F020707828
:101DD3000000400010106888F08088F0F0B8F82008
:101DE30010C080A8A888F088F070208888A82050A8
:101DF3002040401000000008C8809888E088C82070
:101E030010A020A8C8888898C880408888885088EF
:101E130010802008100000000000000000F80840B7
:101E2300A8004010A82060000020C8202008F8085F
:101E330088408808606020F82020A8F8888088807F
:101E43008088882010A08088988880A8A00820888F
:101E530088A850204040201000000078888088F82F
:101E63004078882010C020A88888F0788070408847
:101E730088A8207820402010000000000000000007
:101E83000050F098900020202020200060408820FF
:101E93004088108888408810602010004000A8887F
:101EA3008888908080888820909080888888809017
:101EB3009008208850A888208040101000000088D7
:101EC300888888804008882090A020888888800897
:101ED3008008489850A85008404020100000000097
:101EE300000000200050201868001040000040004F
:101EF30060807070F870107070407060004008006F
:101F030080207088F070E0F8807088706088F888AE
:101F13008870806888F0207020508820F8700870DE
:101F230000FC0078F0707870407088706090708862
:101F33008870800880F0306820508870F830206006
:101F4300000000000000000000000000000000008E
:101F5300000000000000000000000000000000007E
:101F6300000000000000000000000000000000006E
:101F7300000000000000000000000000000000005E
:101F8300000000000000000000000000000000004E
:101F9300000000000000000000000000000000003E
:0A1FA3000000000000000000000034
:00000001FF
