:020000040000FA
:1000000002285675A710E59854045398FB75A5FF70
:1000100075A4FF75A3FE75A26875A3FE75A268435B
:100020009804429822E4F5A9F5A9220229B4122DD8
:02003000EB22C1
:1000330002279A75A20B43A14053F8F343F8012218
:10004300020046C0E0C083C082C0D075D000C007A4
:10005300AFA73082032083059000DEE4F075A7107C
:1000630053E6FD8FA7D007D0D0D082D083D0E03223
:10007300022CB8EFB40A083099FDC29975990D3076
:0700830099FDC2998F99223B
:10008B00022A1900256300202020202066203D2015
:10009B00256420487A00205F5F5F5F5F5F5F5F5F73
:1000AB005F5F5F5F5F5F5F5F5F002046554E43544E
:1000BB00494F4E2047454E455241544F52005553E0
:1000CB00452053434F504520544F204F42534552E8
:1000DB0056450020202020444143204F5554505575
:1000EB0054533A002020202050332E30202620500D
:1000FB00332E31000020505020C0606010400000B3
:10010B0000000000702070F810F830F870700000DC
:10011B00080080707070F070E0F8F87088703888A4
:10012B0080888870F070F078F88888888888F870F4
:10013B0000702000400080000800300080201080FC
:10014B0060000000000000004000000000000030D4
:10015B0020600000000000000020505078C8902064
:10016B00202020200000000088608810308040088C
:10017B008888606010004088088888889080808814
:10018B008820109080D888888888888020888888E4
:10019B008888084000105000200080000800487834
:1001AB0080000080200000000000000040000000E4
:1001BB00000000402010400000000000002050F81C
:1001CB008010A0404010A8200000000898200820B4
:1001DB0050F080108888606020F82008088888809C
:1001EB0088808080882010A080A8C8888888888014
:1001FB002088888850881040801088001070B0705C
:10020B0068704088B060309020D0B070F068B070EB
:10021B00E08888888888F8402010A800000000003B
:10022B000020005070204000401070F800F80010C3
:10023B00A82010109008F0207078000040001010DB
:10024B006888F08088F0F0B8F82010C080A8A888E3
:10025B00F088F070208888A82050204040100000C3
:10026B000008C8809888E088C82010A020A8C888FB
:10027B008898C88040888888508810802008100093
:10028B0000000000000000F80840A8004010A82063
:10029B0060000020C8202008F808884088086060AB
:1002AB0020F82020A8F8888088808088882010A0DB
:1002BB008088988880A8A008208888A85020404073
:1002CB00201000000078888088F84078882010C0C3
:1002DB0020A88888F0788070408888A820782040F3
:1002EB00201000000000000000000050F09890006B
:1002FB0020202020200060408820408810888840E3
:10030B008810602010004000A88888889080808822
:10031B00882090908088888880909008208850A8AA
:10032B008820804010100000008888888880400852
:10033B00882090A02088888880088008489850A83A
:10034B00500840402010000000000000002000502A
:10035B002018680010400000400060807070F8703A
:10036B001070704070600040080080207088F07042
:10037B00E0F8807088706088F8888870806888F0F2
:10038B00207020508820F870087000FC0078F07006
:10039B00787040708870609070888870800880F0EA
:1003AB00306820508870F83020600000000000009A
:1003BB000000000000000000000000000000000032
:1003CB000000000000000000000000000000000022
:1003DB000000000000000000000000000000000012
:1003EB000000000000000000000000000000000002
:1003FB0000000000000000000000000000000000F2
:10040B0000000000000000000000000000000000E1
:10041B000000000000000E000000000000000000C3
:10042B000031800000000000000000004040000090
:10043B000000000000000080200000000000000011
:10044B000001001000000000000000000200080086
:10045B000000000000000002000800000000000087
:10046B000000040004000000000000000004000273
:10047B000000000000000000080002000000000067
:10048B000000000800010000000000000000100048
:10049B0001000000000000000010000080000000C0
:1004AB000000000020000080000000000000002081
:1004BB000000400000000000000040000040000071
:1004CB0000000000004000002000000000000000C1
:1004DB004000002000000000000000800000100021
:1004EB000000000000008000001000000000000071
:1004FB000080000010000000000000010000000858
:10050B0000000000000001000000080000000000D7
:10051B0000020000000800000000000002000000C4
:10052B0004000000000000020000000400000000B6
:10053B0000000400000004000000000000040000A4
:10054B000002000000000000080000000200000094
:10055B00000000080000000100000000000008007F
:10056B000000010000000000000800000001000076
:10057B00000000001000000001000000000000104F
:10058B000000000080000000000010000000008050
:10059B0000000000002000000000400000000000F0
:1005AB0020000000004000000000002000000000C0
:1005BB004000000000004000000000200000000090
:1005CB000040000000002000000000004000000080
:1005DB000020000000000080000000001000000060
:1005EB0000008000000000100000000000800000F0
:1005FB0000001000000000010000000000100000CF
:10060B0000000100000000000800000000010000D5
:10061B0000000008000000000200000000000800BD
:10062B0000000002000000000004000000000200B7
:10063B0000000000040000000004000000000004A3
:10064B000000000004000000000002000000000495
:10065B000000000000020000000008000000000085
:10066B000200000000080000000000010000000074
:10067B000800000000000100000000100000000056
:10068B00000080000000100000000000008000004F
:10069B0000100000000000008000000010000000AF
:1006AB00000000800000002000000000000040005F
:1006BB00000020000000000000400000004000008F
:1006CB00000000002000000040000000000000209F
:1006DB00000000400000000000002000000080002F
:1006EB00000000000010000000800000000000006F
:1006FB0010000001000000000000000800000100D5
:10070B0000000000000008000002000000000000D4
:10071B0000080000020000000000000004000002BE
:10072B0000000000000000040000040000000000B6
:10073B0000000400000400000000000000020000A4
:10074B000400000000000000020000080000000090
:10075B000000000100000800000000000000010084
:10076B0000100000000000000000800010000000DE
:10077B0000000000008000200000000000000000CE
:10078B00400040000000000000000040004000005E
:10079B0000000000000020008000000000000000AE
:1007AB00002000800000000000000000100100008D
:1007BB000000000000000008020000000000000024
:1007CB0000000404000000000000000000031800FB
:1007DB00000000000000000000E00000000000002E
:1007EB0000000000000000000000000000000000FE
:1007FB0000000FFFFFFFFFF80000000000080000E3
:10080B0000000800000000000800000000080000C5
:10081B0000000008000000000800000000000800B5
:10082B0000000008000000000008000000000800A5
:10083B000000000008000000000800000000000895
:10084B000000000008000000000008000000000885
:10085B00000000000008000000000800000000007D
:10086B000800000000080000000000080000000065
:10087B000800000000000800000000080000000055
:10088B000008000000000800000000000800000045
:10089B000008000000000008000000000800000035
:1008AB000000080000000008000000000008000025
:1008BB000000080000000000080000000008000015
:1008CB000000000800000000080000000000080005
:1008DB0000000008000000000008000000000800F5
:1008EB0000000000080000000008000000000008E5
:1008FB0000000000080000000000080000000008D5
:10090B0000000000000800000000080000000000CC
:10091B0008000000000800000000000800000000B4
:10092B0008000000000008000000000800000000A4
:10093B000008000000000800000000000800000094
:10094B000008000000000008000000000800000084
:10095B000000080000000008000000000008000074
:10096B000000080000000000080000000008000064
:10097B000000000800000000080000000000080054
:10098B000000000800000000000800000000080044
:10099B000000000008000000000800000000000834
:1009AB000000000008000000000008000000000824
:1009BB00000000000008000000000800000000001C
:1009CB000800000000080000000000080000000004
:1009DB0008000000000008000000000800000000F4
:1009EB0000080000000008000000000008000000E4
:1009FB0000080000000000080000000008000000D4
:100A0B0000000800000000080000000000080000C3
:100A1B0000000800000000000800000000080000B3
:100A2B0000000008000000000800000000000800A3
:100A3B000000000800000000000800000000080093
:100A4B000000000008000000000800000000000883
:100A5B000000000008000000000008000000000873
:100A6B00000000000008000000000800000000006B
:100A7B000800000000080000000000080000000053
:100A8B000800000000000800000000080000000043
:100A9B000008000000000800000000000800000033
:100AAB000008000000000008000000000800000023
:100ABB000000080000000008000000000008000013
:100ACB000000080000000000080000000008000003
:100ADB0000000008000000000800000000000800F3
:100AEB0000000008000000000008000000000800E3
:100AFB0000000000080000000008000000000008D3
:100B0B0000000000080000000000080000000008C2
:100B1B0000000000000800000000080000000000BA
:100B2B0008000000000800000000000800000000A2
:100B3B000800000000000800000000080000000092
:100B4B000008000000000800000000000800000082
:100B5B000008000000000008000000000800000072
:100B6B000000080000000008000000000008000062
:100B7B000000080000000000080000000008000052
:100B8B0000000008000000000FFFFFFFFFF0000057
:100B9B00000000000000000000000000000000004A
:100BAB00000000000000000000000000000000003A
:100BBB00000000000000000000000000000000002A
:100BCB00000000000000000000000000000000001A
:100BDB00000000000000000000000000000000000A
:100BEB0000000000001000000000000000000000EA
:100BFB00300000000000000000000070000000004A
:100C0B00000000000000D000000000000000000009
:100C1B000190000000000000000000031000000025
:100C2B0000000000000006100000000000000000A3
:100C3B00000C100000000000000000001810000065
:100C4B000000000000000030100000000000000059
:100C5B0000006010000000000000000000C0100049
:100C6B0000000000000000018010000000000000E8
:100C7B000000030010000000000000000006001040
:100C8B0000000000000000000C001000000000003D
:100C9B0000000018001000000000000000003000F1
:100CAB0010000000000000000060001000000000B9
:100CBB0000000000C00010000000000000000180D8
:100CCB0000100000000000000003000010000000F6
:100CDB000000000006000010000000000000000CE7
:100CEB0000001000000000000000180000100000C1
:100CFB0000000000003000001000000000000000A9
:100D0B006000001000000000000000C00000100098
:100D1B000000000000018000001000000000000037
:100D2B00030000001000000000000006000000108F
:100D3B000000000000000C0000001000000000008C
:100D4B000018000000100000000000003000000040
:100D5B001000000000000060000000100000000008
:100D6B000000C00000001000000000000180000027
:100D7B000010000000000003000000001000000045
:100D8B00000006000000001000000000000C000036
:100D9B000000100000000000180000000010000010
:100DAB000000003000000000100000000000600098
:100DBB00000000100000000000C000000000100048
:100DCB000000000180000000001000000000030084
:100DDB0000000000100000000006000000000010E2
:100DEB00000000000C0000000000100000000018C4
:100DFB0000000000001000000000300000000000A8
:100E0B001000000000600000000000100000000057
:100E1B00C000000000001000000001800000000076
:100E2B000010000000030000000000001000000094
:100E3B0006000000000000100000000C0000000085
:100E4B00000010000000180000000000001000005F
:100E5B0000300000000000001000000060000000E7
:100E6B0000000010000000C0000000000000100097
:100E7B0000018000000000000010000003000000D3
:100E8B000000000010000006000000000000001031
:100E9B0000000C0000000000000010000018000013
:100EAB0000000000001000003000000000000000F7
:100EBB001000006000000000000000100000C000E7
:100ECB000000000000001000018000000000000086
:100EDB0000100003000000000000000010000600DE
:100EEB000000000000000010000C000000000000DB
:100EFB00000010001800000000000000001000307F
:100F0B000000000000000000100060000000000066
:100F1B000000001000C000000000000000001001E5
:100F2B008000000000000000001003000000000023
:100F3B000000000010060000000000000000001080
:100F4B000C00000000000000000010180000000062
:100F5B000000000000100000000000000000000076
:100F6B000000000000000000000000000000000076
:100F7B000000000000000000000000001000000056
:100F8B000000000000000010000000000000000046
:100F9B0000003800000000000000000000280000E6
:100FAB0000000000000000006C00000000000000CA
:100FBB000000004400000000000000000000C6001C
:100FCB000000000000000000008200000000000094
:100FDB000000000183000000000000000000010180
:100FEB000000000000000000000301800000000072
:100FFB00000000000200800000000000000000065E
:10100B0000C00000000000000000040040000000D1
:10101B0000000000000C0060000000000000000059
:10102B000800200000000000000000180030000045
:10103B000000000000001000100000000000000085
:10104B000030001800000000000000002000080025
:10105B000000000000000060000C00000000000019
:10106B0000004000040000000000000000C000066B
:10107B0000000000000000008000020000000000E3
:10108B0000000180000300000000000000010000D0
:10109B0001000000000000000300000180000000C0
:1010AB0000000002000000800000000000000600AD
:1010BB000000C00000000000000400000040000021
:1010CB00000000000C0000006000000000000008A1
:1010DB00000000200000000000001800000030009D
:1010EB0000000000001000000010000000000000D5
:1010FB003000000018000000000000200000000875
:10110B00000000000000600000000C000000000068
:10111B00004000000004000000000000C0000000C0
:10112B00060000000000008000000002000000002C
:10113B00000180000000030000000000010000001F
:10114B00000100000000000300000000018000000F
:10115B0000000200000000008000000000060000FC
:10116B00000000C000000000040000000000400070
:10117B000000000C000000000060000000000800F0
:10118B0000000000200000000018000000000030EC
:10119B0000000000100000000000100000000030F4
:1011AB0000000000001800000000200000000000FC
:1011BB0008000000006000000000000C00000000B0
:1011CB004000000000000400000000C00000000010
:1011DB00000600000000800000000000020000007C
:1011EB00018000000000000300000001000000006F
:1011FB00000001000000030000000000000180005F
:10120B00000200000000000000800000060000004B
:10121B0000000000C00000040000000000000040BF
:10122B0000000C000000000000006000000800003F
:10123B00000000000020000018000000000000006B
:10124B003000001000000000000000100000300013
:10125B00000000000000180000200000000000004B
:10126B000008000060000000000000000C000040BF
:10127B0000000000000000040000C000000000009F
:10128B0000000600008000000000000000020001CA
:10129B0080000000000000000300010000000000BF
:1012AB0000000001000300000000000000000180AE
:1012BB00020000000000000000008006000000009B
:1012CB000000000000C0040000000000000000004F
:1012DB00400C00000000000000000060080000004F
:1012EB0000000000000020180000000000000000BB
:1012FB000030100000000000000000001030000063
:10130B00000000000000001820000000000000009A
:10131B00000008600000000000000000000C00004E
:10132B0000000000000000000000000000000000B2
:10133B0000000000000000000000000000000000A2
:10134B000000000000000000000000000000004052
:10135B000000000000000000000040000000000042
:10136B000000000000601000000000000000000002
:10137B006018000000000000000100A02800000021
:10138B00000000000100A028000000000000000188
:10139B0080A028000000000000000280A0280000B0
:1013AB0000000000000280A02804000000000000E4
:1013BB000280A028040000000000000280A0280C7E
:1013CB000000000000000240A0280A0000000000FE
:1013DB00020240A0280A0000000000020240A028E0
:1013EB000A000000000006024090280A00000000DE
:1013FB000005024090280A00000000000502409002
:10140B00280A00000000000502409048120000006E
:10141B000000050240904812020000000005024047
:10142B009048120200000000050240904412030095
:10143B000000000502409044120500000000090264
:10144B004090441205000000000902409044120431
:10145B0080000008090240904412048000000C092F
:10146B00024110441204800000140902411044127E
:10147B000480000014090241104411048000001480
:10148B000902411044110480000014090241104468
:10149B0011048000001408824110441104800000E4
:1014AB0014088441104411048080003208844110D8
:1014BB0044110480C000220884211044110481408F
:1014CB000022088421104411088140002208842145
:1014DB001044110881200022088421104411084176
:1014EB00201022108421104411084220382210842D
:1014FB002108442108422028221084210844210875
:10150B0042204822108421084421084220CC22107A
:10151B0084210844210842100462108421084421CC
:10152B00084211044210842108422108421204434C
:10153B0010842108422108421204411084210842E0
:10154B0021084414044110842108822108440C060C
:10155B004110842208822108440002411084220891
:10156B0082208824000241108422088220882400D3
:10157B000281104422088220882400038110482213
:10158B000882208824000101104822088220882428
:10159B00000001104822088220902400000110480E
:1015AB0022088220902400000120482208822090EB
:1015BB0028000001204822088220902800000120EA
:1015CB0048120882209028000000A04812088220B0
:1015DB009018000000A04812088220901000000014
:1015EB00A048120882409000000000A04812088218
:1015FB00409000000000A0481208824090000000BC
:10160B0000A048120482409000000000C048120461
:10161B0082405000000000404812048240500000FD
:10162B000000002812048240500000000000281225
:10163B000502405000000000002812050140500038
:10164B000000000028120501406000000000002887
:10165B001205014020000000000028120501402067
:10166B0000000000003012050140000000000000E7
:10167B00101405014000000000000010140501408B
:10168B0000000000000010140501400000000000E5
:10169B0000001405014000000000000000140501CB
:1016AB004000000000000000140500800000000056
:1016BB000000001405008000000000000000080579
:1016CB000000000000000000000803000000000004
:1016DB0000000000080200000000000000000000F5
:1016EB0002000000000000000000000000000000ED
:1016FB000000000000000000000000001028440063
:10170B00004428102040804020040201020407FFFF
:10171B0008310863089508C708F9092B095C098E7D
:10172B0009BF09F00A200A510A810AB00ADF0B0E21
:10173B000B3C0B6A0B970BC30BEF0C1B0C460C7083
:10174B000C990CC20CEA0D110D380D5D0D820DA616
:10175B000DC90DEB0E0D0E2D0E4C0E6B0E880EA53E
:10176B000EC00EDA0EF40F0C0F230F390F4E0F6253
:10177B000F740F860F960FA50FB30FC00FCC0FD69C
:10178B000FDF0FE70FEE0FF40FF80FFB0FFD0FFE40
:10179B000FFD0FFB0FF80FF40FEE0FE70FDF0FD658
:1017AB000FCC0FC00FB30FA50F960F860F740F62E0
:1017BB000F4E0F390F230F0C0EF40EDA0EC00EA5C1
:1017CB000E880E6B0E4C0E2D0E0D0DEB0DC90DA6CE
:1017DB000D820D5D0D380D110CEA0CC20C990C70BD
:1017EB000C460C1B0BEF0BC30B970B6A0B3C0B0E36
:1017FB000ADF0AB00A810A510A2009F009BF098ED3
:10180B00095C092B08F908C708950863083107FF1D
:10181B0007CC079A07680736070406D206A1066F9E
:10182B00063E060D05DD05AC057C054D051E04EFDA
:10183B0004C104930466043A040E03E203B7038D58
:10184B000364033B031302EC02C502A0027B0257A5
:10185B000234021201F001D001B10192017501585D
:10186B00013D0123010900F100DA00C400AF009B28
:10187B000089007700670058004A003D00310027BF
:10188B00001E0016000F00090005000200010000F9
:10189B000001000200050009000F0016001E0027C2
:1018AB000031003D004A0058006700770089009B1B
:1018BB0000AF00C400DA00F101090123013D01581A
:1018CB000175019201B101D001F0021202340257ED
:1018DB00027B02A002C502EC0313033B0364038DDE
:1018EB0003B703E2040E043A0466049304C104EF45
:1018FB00051E054D057C05AC05DD060D063E066F88
:10190B0006A106D2070407360768079A07CC0FFF14
:10191B000FFF0FFF0FFF0FFF0FFF0FFF0FFF0FFF4C
:10192B000FFF0FFF0FFF0FFF0FFF0FFF0FFF0FFF3C
:10193B000FFF0FFF0FFF0FFF0FFF0FFF0FFF0FFF2C
:10194B000FFF0FFF0FFF0FFF0FFF0FFF0FFF0FFF1C
:10195B000FFF0FFF0FFF0FFF0FFF0FFF0FFF0FFF0C
:10196B000FFF0FFF0FFF0FFF0FFF0FFF0FFF0FFFFC
:10197B000FFF0FFF0FFF0FFF0FFF0FFF0FFF0FFFEC
:10198B000FFF0FFF0FFF0FFF0FFF0FFF0FFF0FFFDC
:10199B000FFF0FFF0FFF0FFF0FFF0FFF0FFF0FFFCC
:1019AB000FFF0FFF0FFF0FFF0FFF0FFF0FFF0FFFBC
:1019BB000FFF0FFF0FFF0FFF0FFF0FFF0FFF0FFFAC
:1019CB000FFF0FFF0FFF0FFF0FFF0FFF0FFF0FFF9C
:1019DB000FFF0FFF0FFF0FFF0FFF0FFF0FFF0FFF8C
:1019EB000FFF0FFF0FFF0FFF0FFF0FFF0FFF0FFF7C
:1019FB000FFF0FFF0FFF0FFF0FFF0FFF0FFF0FFF6C
:101A0B000FFF0FFF0FFF0FFF0FFF0FFF0FFF000069
:101A1B0000000000000000000000000000000000BB
:101A2B0000000000000000000000000000000000AB
:101A3B00000000000000000000000000000000009B
:101A4B00000000000000000000000000000000008B
:101A5B00000000000000000000000000000000007B
:101A6B00000000000000000000000000000000006B
:101A7B00000000000000000000000000000000005B
:101A8B00000000000000000000000000000000004B
:101A9B00000000000000000000000000000000003B
:101AAB00000000000000000000000000000000002B
:101ABB00000000000000000000000000000000001B
:101ACB00000000000000000000000000000000000B
:101ADB0000000000000000000000000000000000FB
:101AEB0000000000000000000000000000000000EB
:101AFB0000000000000000000000000000000000DB
:101B0B0000000000000000000000000000000000CA
:101B1B00000F001F002F003F004F005F006F007F82
:101B2B00008F009F00AF00BF00CF00DF00EF00FF72
:101B3B00010F011F012F013F014F015F016F017F5A
:101B4B00018F019F01AF01BF01CF01DF01EF01FF4A
:101B5B00020F021F022F023F024F025F026F027F32
:101B6B00028F029F02AF02BF02CF02DF02EF02FF22
:101B7B00030F031F032F033F034F035F036F037F0A
:101B8B00038F039F03AF03BF03CF03DF03EF03FFFA
:101B9B00040F041F042F043F044F045F046F047FE2
:101BAB00048F049F04AF04BF04CF04DF04EF04FFD2
:101BBB00050F051F052F053F054F055F056F057FBA
:101BCB00058F059F05AF05BF05CF05DF05EF05FFAA
:101BDB00060F061F062F063F064F065F066F067F92
:101BEB00068F069F06AF06BF06CF06DF06EF06FF82
:101BFB00070F071F072F073F074F075F076F077F6A
:101C0B00078F079F07AF07BF07CF07DF07EF07FF59
:101C1B00080F081F082F083F084F085F086F087F41
:101C2B00088F089F08AF08BF08CF08DF08EF08FF31
:101C3B00090F091F092F093F094F095F096F097F19
:101C4B00098F099F09AF09BF09CF09DF09EF09FF09
:101C5B000A0F0A1F0A2F0A3F0A4F0A5F0A6F0A7FF1
:101C6B000A8F0A9F0AAF0ABF0ACF0ADF0AEF0AFFE1
:101C7B000B0F0B1F0B2F0B3F0B4F0B5F0B6F0B7FC9
:101C8B000B8F0B9F0BAF0BBF0BCF0BDF0BEF0BFFB9
:101C9B000C0F0C1F0C2F0C3F0C4F0C5F0C6F0C7FA1
:101CAB000C8F0C9F0CAF0CBF0CCF0CDF0CEF0CFF91
:101CBB000D0F0D1F0D2F0D3F0D4F0D5F0D6F0D7F79
:101CCB000D8F0D9F0DAF0DBF0DCF0DDF0DEF0DFF69
:101CDB000E0F0E1F0E2F0E3F0E4F0E5F0E6F0E7F51
:101CEB000E8F0E9F0EAF0EBF0ECF0EDF0EEF0EFF41
:101CFB000F0F0F1F0F2F0F3F0F4F0F5F0F6F0F7F29
:101D0B000F8F0F9F0FAF0FBF0FCF0FDF0FEF000026
:101D1B00001F003F005F007F009F00BF00DF00FF40
:101D2B00011F013F015F017F019F01BF01DF01FF28
:101D3B00021F023F025F027F029F02BF02DF02FF10
:101D4B00031F033F035F037F039F03BF03DF03FFF8
:101D5B00041F043F045F047F049F04BF04DF04FFE0
:101D6B00051F053F055F057F059F05BF05DF05FFC8
:101D7B00061F063F065F067F069F06BF06DF06FFB0
:101D8B00071F073F075F077F079F07BF07DF07FF98
:101D9B00081F083F085F087F089F08BF08DF08FF80
:101DAB00091F093F095F097F099F09BF09DF09FF68
:101DBB000A1F0A3F0A5F0A7F0A9F0ABF0ADF0AFF50
:101DCB000B1F0B3F0B5F0B7F0B9F0BBF0BDF0BFF38
:101DDB000C1F0C3F0C5F0C7F0C9F0CBF0CDF0CFF20
:101DEB000D1F0D3F0D5F0D7F0D9F0DBF0DDF0DFF08
:101DFB000E1F0E3F0E5F0E7F0E9F0EBF0EDF0EFFF0
:101E0B000F1F0F3F0F5F0F7F0F9F0FBF0FDF0FFFD7
:101E1B000FDF0FBF0F9F0F7F0F5F0F3F0F1F0EFFC8
:101E2B000EDF0EBF0E9F0E7F0E5F0E3F0E1F0DFFC0
:101E3B000DDF0DBF0D9F0D7F0D5F0D3F0D1F0CFFB8
:101E4B000CDF0CBF0C9F0C7F0C5F0C3F0C1F0BFFB0
:101E5B000BDF0BBF0B9F0B7F0B5F0B3F0B1F0AFFA8
:101E6B000ADF0ABF0A9F0A7F0A5F0A3F0A1F09FFA0
:101E7B0009DF09BF099F097F095F093F091F08FF98
:101E8B0008DF08BF089F087F085F083F081F07FF90
:101E9B0007DF07BF079F077F075F073F071F06FF88
:101EAB0006DF06BF069F067F065F063F061F05FF80
:101EBB0005DF05BF059F057F055F053F051F04FF78
:101ECB0004DF04BF049F047F045F043F041F03FF70
:101EDB0003DF03BF039F037F035F033F031F02FF68
:101EEB0002DF02BF029F027F025F023F021F01FF60
:101EFB0001DF01BF019F017F015F013F011F00FF58
:101F0B0000DF00BF009F007F005F003F001F080045
:101F1B0008050815082E084D0870089208AF08C46C
:101F2B0008CE08C908B4088D0856081107BF076703
:101F3B00070B06B30664062305F705E305EB06114D
:101F4B00065506B5072F07BC085708F809960A2A45
:101F5B000AA90B0D0B4E0B670B540B150AAB0A188A
:101F6B000963089407B406CE05EE0520046E03E45E
:101F7B00038A0366037B03CC0454051105F907029E
:101F8B00082009450A610B680C4A0CFC0D730DA85F
:101F9B000D960D3C0C9E0BC20AB10978082606CB98
:101FAB000578043E032D025501C00177018001DA4B
:101FBB000284037604A40602077D09050A850BEB50
:101FCB000D240E210ED30F320F370EE20E360D39C4
:101FDB000BF90A8308EA074205A0041802BD01A207
:101FEB0000D4005F00480092013A0237037E04FFE1
:101FFB0006A708630A1B0BBA0D2D0E600F440FCEFC
:10200B000FF70FBD0F210E2D0CEB0B6B09C008004A
:10201B00063F0494031401D200DE00420008003195
:10202B0000BB019F02D2044505E4079C09580B0035
:10203B000C810DC80EC50F6D0FB70FA00F2B0E5DCA
:10204B000D420BE70A5F08BD0715057C040602C6A7
:10205B0001C9011D00C800CD012C01DE02DB0414F7
:10206B00057A06FA088209FD0B5B0C890D7B0E25A0
:10207B000E7F0E880E3F0DAA0CD20BC10A870934B6
:10208B0007D90687054E043D036102C30269025757
:10209B00028C030303B50497059E06BA07DF08FD00
:1020AB000A060AEE0BAB0C330C840C990C750C1B4B
:1020BB000B910ADF0A110931084B076B069C05E7E8
:1020CB00055404EA04AB049804B104F2055605D593
:1020DB000669070707A8084308D0094A09AA09EEA9
:1020EB000A140A1C0A0809DC099B094C08F4089815
:1020FB00084007EE07A90772074B07360731073B66
:10210B000750076D078F07B207D107EA07FAE510EB
:10211B00249FF582E43400F583E005102290009CA7
:10212B0030070390009FE475F00112265302247EC2
:10213B002000E97F2ED2008018EF540F2490D43466
:10214B0040D4FF30040BEF24BFB41A0050032461BA
:10215B00FFE511600215110514E51470020513302B
:10216B00070E90009CE475F001122653EF022641F6
:10217B00022E017403D2078003E4C207F51090000E
:10218B009C12266AE4F511F513F514E51160077F2F
:10219B002012215C80F57512FFC201C200C202C27F
:1021AB0003C205C206C208122128FF700D300705B5
:1021BB007F0012216DAF14AE1322B4255FC2D5C2BE
:1021CB0004122128FF24D0B40A00501A75F00A78A3
:1021DB001130D50508B6FF0106C6A426F620D50496
:1021EB007002D20380D924CFB41A00EF5004C2E599
:1021FB00D20402236ED20180C6D20080C0D20280EC
:10220B00BCD2D580BAD20580B47F2012215C2002CB
:10221B00077401B5110040F1122119FF12215C0264
:10222B002196D208D2068095122119FB122119FA98
:10223B00122119F94A4B7006793F7A247BFF200251
:10224B002EE511602A7E008E827583001224976022
:10225B00060EEE651270F0C2D5EBC0E0EAC0E0E905
:10226B00C0E0EE1223B5D0E0F9D0E0FAD0E0FB12DB
:10227B00247EFF60AAEBC0E0EAC0E0E9C0E01221D7
:10228B005CD0E02401F9D0E03400FAD0E0FBE51299
:10229B000460DCD512D980877BFF7A2379B1D20217
:1022AB00809C791080027908C206C2088008D2D5BA
:1022BB00790A8004790AC2D5E512047002F512E49A
:1022CB00FAFDFEFF122119FC7B08200113122119C4
:1022DB00FD7B1030000A122119FE122119FF7B2001
:1022EB00EC3382D592D55013C3E43000069FFFE444
:1022FB009EFEE42001039DFDE49CFCE4CBF8C201AF
:10230B00EC700CCFCECDCCE824F8F870F38017C36B
:10231B00EF33FFEE33FEED33FDEC33FCEB33FB9988
:10232B004002FB0FD8E9EB300105F8D0E0C448B20E
:10233B0001C0E00AEC4D4E4F78207B0070C2EAB52D
:10234B00120040BCC0E01223B7D0F0D0E020010453
:10235B00C4C0E0C4B201C0F0122145D0F0D5F0EBFF
:10236B0002219612267322335322AD5822044C229B
:10237B00004222B14F22B94422B94922194322BF4C
:10238B005522A34622A34522A347245F5022082DA2
:10239B00220C2E222F2B221023222D2024482A21DF
:1023AB00C848000022273F3F3F00790AA2D52003EF
:1023BB0014300509B910020404B9080104A2D52090
:1023CB0006025001042002689202B511005034C07D
:1023DB00E07F203003197F30A20272067205500F86
:1023EB0012240EC202C206C205C2087F30800F3013
:1023FB000503E9C0E012215C300503D0E0F9D0E021
:10240B00B511CC3005177F30B9100C12215C7F58F9
:10241B003004077F788003B9080312215C30020572
:10242B007F2D02215C7F202008F87F2B2006F322D2
:10243B00920280CF286E756C6C2900D20112211983
:10244B003001F8C201781130D50108F60221C82DF0
:10245B00504349581221192403B405004001E4905C
:10246B00245A9312214D743A12214DD20375110443
:10247B000222ADBB010689828A83E0225002E72249
:10248B00BBFE02E32289828A83E49322BB010CE523
:10249B008229F582E5833AF583E0225006E925820D
:1024AB00F8E622BBFE06E92582F8E222E58229F551
:1024BB0082E5833AF583E49322C5F0F8A3E028F094
:1024CB00C5F0F8E582158270021583E038F022E83A
:1024DB008FF0A4CC8BF0A42CFCE98EF0A42CFC8AFE
:1024EB00F0EDA42CFCEA8EF0A4CDA8F08BF0A42D7B
:1024FB00CC3825F0FDE98FF0A42CCD35F0FCEB8E1C
:10250B00F0A4FEA9F0EB8FF0A4CFC5F02ECD39FED1
:10251B00E43CFCEAA42DCE35F0FDE43CFC2275F046
:10252B0008758200EF2FFFEE33FECD33CDCC33CCCD
:10253B00C58233C5829BED9AEC99E58298400CF5E8
:10254B0082EE9BFEED9AFDEC99FC0FD5F0D6E4CE16
:10255B00FBE4CDFAE4CCF9A88222B800C1B900594A
:10256B00BA002DEC8BF084CFCECDFCE5F0CBF97817
:10257B0018EF2FFFEE33FEED33FDEC33FCEB33FBAB
:10258B0010D703994004EB99FB0FD8E5E4F9FA2235
:10259B007818EF2FFFEE33FEED33FDEC33FCC93330
:1025AB00C910D7059BE99A4007EC9BFCE99AF90FF8
:1025BB00D8E0E4C9FAE4CCFB2275F010EF2FFFEE64
:1025CB0033FEED33FDCC33CCC833C810D7079BECAF
:1025DB009AE899400AED9BFDEC9AFCE899F80FD527
:1025EB00F0DAE4CDFBE4CCFAE4C8F922EB9FF5F08A
:1025FB00EA9E42F0E99D42F0E89C45F022ECF0A304
:10260B00EDF0A3EEF0A3EFF022EC8EF0A4CCC5F02E
:10261B00CCCDF8EFA4CEC5F02DFDE43CFCE8A42E08
:10262B00C8C5F03DFDE43CFCEFA4FFE5F028FEE45B
:10263B003DFDE43CFC22BB010689828A83F02250DB
:10264B0002F722BBFE01F322F8E0FBA3A3E0F9257E
:10265B00F0F0E582158270021583E0FA38F022EB78
:10266B00F0A3EAF0A3E9F022D083D082F8E49370D0
:10267B0012740193700DA3A393F8740193F58288E0
:10268B0083E4737402936860EFA3A3A380DF9000CD
:10269B00A1EEF0A3EFF0A3EDF0A3EBF09000A5E01B
:1026AB00FBA3E0FAA3E0F912247E700302279990B2
:1026BB0000A8F0C3648094A04008E0D3648094FE2B
:1026CB0040069000A87420F09000A3E0D3947840CB
:1026DB00030227859000A8E0FF3395E0FE9000A44D
:1026EB00E075F064A42FF582E5F03EF583E58224D6
:1026FB00F5F582E583342DF583E493FD9000A3E09B
:10270B00FF131313541FFB9000A2E02BFB9000A1AF
:10271B00E03400FA9000A9F0A3EBF0F5828A83C0B5
:10272B0083C082EF5407FCE47EFFA804088005CE2B
:10273B00C313CE13D8F9F4FFEEF4FEE05EFEA3E074
:10274B005FFFD082D083EEF0A3EFF09000A9E0FE04
:10275B00A3E0F5828E83C083C082EDFEE4A804085B
:10276B008005CEC313CE13D8F9FFE04EFEA3E04F86
:10277B00FFD082D083EEF0A3EFF09000A6E475F0CB
:10278B00011224C49000A3E02406F00226A722C065
:10279B00E0C0F0C083C082C0D075D000C000C001C3
:1027AB00C002C003C004C005C006C00775A720E562
:1027BB00F854F0F4440F52F8AF9BEF30E3729000F3
:1027CB00F3E0604AE5A120E045300A1E9000F6E0F8
:1027DB00FEA3E0F5828E83E5A3F09000F7E004F012
:1027EB00700E9000F6E004F08006900019E5A3F05F
:1027FB009000F3E014F0E0700D300C05300902D2BC
:10280B00FA122D0780089000F3E09000F5F090008D
:10281B00F4E0601C30F919300B0D9000F8E0F8E291
:10282B00F5A3E004F0800375A3009000F4E014F02E
:10283B00D007D006D005D004D003D002D001D000F1
:10284B00D0D0D082D083D0F0D0E032787FE4F6D8ED
:10285B00FD75812102289D022DB5E493A3F8E49325
:10286B00A34003F68001F208DFF48029E493A3F878
:10287B005407240CC8C333C4540F4420C8834004EA
:10288B00F456800146F6DFE4800B010204081020A9
:10289B0040809028E2E47E019360BCA3FF543F305C
:1028AB00E509541FFEE493A360010ECF54C025E04D
:1028BB0060A840B8E493A3FAE493A3F8E493A3C805
:1028CB00C582C8CAC583CAF0A3C8C582C8CAC58396
:1028DB00CADFE9DEE780BE4200F900004100FB00E1
:1028EB004100FC004200FD0000C109C10CC10DC13B
:1028FB000AC10B4100F3004100F4004100F5004117
:10290B0000F8004200F600004100DD004200F11724
:10291B00194200DF041F5000E1000A0014003200CE
:10292B006400C801F403E807D04100DC034200CA8D
:10293B00006D4100DE014200C600004200C80000ED
:10294B0000900018E09000F3F0A3F0A3F09000F8D3
:10295B00EFF0AF059000F6ECF0A3EFF0EB13920A5B
:10296B00EBA2E1920BAFA775A720200D03122DA4AC
:10297B00439A0453F80F539BEF439A08300C0530DE
:10298B000902C2FA30F91F9000F4E06019300B0D08
:10299B009000F8E0F8E2F5A3E004F08003E4F5A37F
:1029AB009000F4E014F08FA722C0E0C0F0C083C009
:1029BB0082C0D075D000C000C001C002C003C004EB
:1029CB00C005C006C00753C87F53C8FB9000FBE08F
:1029DB00B401157402F07F00A3E0900018F07B02A5
:1029EB00E4FDFC12294C800B9000FBE0B40304C205
:1029FB00A6E4F0D007D006D005D004D003D002D087
:102A0B0001D000D0D0D082D083D0F0D0E032C0E063
:102A1B00C083C082C0D075D00853987F9000CAE0A5
:102A2B00FEA3E0FF9000C9E02FF09000C8E03EF05D
:102A3B00E025E0FFE433FE9000F1E0FCA3E02FF58E
:102A4B0082EC3EF583E493FF7401939000C4CFF0C6
:102A5B00A3EFF075A7309000C5E0F584F5899000E1
:102A6B00C4E0F585F58AD0D0D082D083D0E0329007
:102A7B0000A1EFF0A3EBF0A3EAF0A3E9F07F801243
:102A8B002C519000A5EFF09000A1E004FF122C8CCC
:102A9B009000A6EFF0E4FF9000A2E0FBA3E0FAA306
:102AAB00E0F98F82758300122497FE74A72FF582AD
:102ABB00E43400F583EEF00FEFB410DBE49000B7D5
:102ACB00F0A3F07B017A0079A57D14022B359000E1
:102ADB009CEBF0A3EAF0A3E9F0A3EDF0E4A3F07E06
:102AEB00007FCC122D6E7E007FCC90009CE0F9A372
:102AFB00E0FAA3E09000A5C9F0A3EAF0A3E9F090F7
:102B0B0000A0E0FB7D041226999000A0E0FF90004E
:102B1B009FE02FFF7B017A0079CC122A7A9000A0DC
:102B2B00E004F0E0C3940840B6229000B9EBF0A3A8
:102B3B00EAF0A3E9F09000FBE070FA9000FB74015F
:102B4B00F0A3EDF0E4FFEFC39D501D9000B9E0FB47
:102B5B00A3E0FAA3E0F98F82758300122497FE7429
:102B6B00002FF8EEF20F80DEAFA7E4F5A775CFFFCD
:102B7B0075CEF4D2A643C8048FA72290001BE5A7FD
:102B8B00F0122DC3122D80122D92122DCD122E0963
:102B9B00122DD7122D5B122DF3122E0D122E111298
:102BAB002DFA120025122D48122CD6120003122DCD
:102BBB00E1120036122D1E122E0590001BE0F5A718
:102BCB0022C2D5E830E70FB2D5E4C39BFBE49AFAF7
:102BDB00E499F9E498F8EC30E717B2D5122C02120D
:102BEB002565E4C39BFBE49AFAE499F9E498F88031
:102BFB000312256530D50DE4C39FFFE49EFEE49DD3
:102C0B00FDE49CFC22122D3490001BEFF07BFF7A2D
:102C1B0000798E90009FF012218490009F74FFF03A
:102C2B00A37400F0A3748FF090001BE09000A2F04F
:102C3B007B017A00791C12217E7B017A00791C7D45
:102C4B000A122AD980BF9000B9EFF0122CEFAD0712
:102C5B00AC069000F9E0FEA3E0FFC3ED9FFFEC9EF6
:102C6B00FED3EF94C8EE940040119000B9E04440BD
:102C7B00F0AF059000F9ECF0A3EFF09000B9E0FF96
:102C8B0022EF540FC454F0FEEF54F0C4540F4EFF18
:102C9B00543325E025E0FEEF54CC1313543F4EFF85
:102CAB00545525E0FEEF54AAC3134EFF22C0E0C0DB
:102CBB0083C08253917F9000FEE004F07006900079
:102CCB00FDE004F0D082D083D0E032E59154045380
:102CDB0091FB7595F87594067593F875920643916B
:102CEB0004429122AFA775A71053E67F9000FDE039
:102CFB00FCA3E043E6808FA7AE04FF229000FB7499
:102D0B0003F0AFA7E4F5A775CFFF75CEFC43C8045E
:102D1B008FA72275E68275F30475A71075EE827581
:102D2B00ED04E4F5A775A86022100E0B12002EBF60
:102D3B000D027F0A022E019000FFE0FF22AF8853A5
:102D4B0088AF758D96EF5440FEEF54104E4288229B
:102D5B00E4F5B275BB0D75DF3F75BC0875B9014362
:102D6B00E88022E4FDEF2DF582E43EF583E4F00DDF
:102D7B00EDB410F1227580FF75A41075F1FFE4F529
:102D8B00D4F5FE75FDFF227590FFE4F5A575F27F76
:102D9B0075D580F5EE75EDFF22E5A1A2E6920CE567
:102DAB00F8540C24FF9209D20D22122B86C2B4D2F6
:102DBB00A2D299122C1080FBE4F5A77597DE7597BC
:102DCB00AD2275A60975A72075CC0922E4F5A77568
:102DDB00E34075E10122758E0875892043884022F6
:102DEB003098FDAF99C2982275A73075918222E475
:102DFB00F5A775D18022120076224398102275F424
:102E0B009C2275938222E4F588220020505020C02A
:102E1B0060601040000000000000702070F810F897
:102E2B0030F870700000080080707070F070E0F87F
:102E3B00F8708870388880888870F070F078F8881F
:102E4B0088888888F8700070200040008000080097
:102E5B003000802010806000000000000000400067
:102E6B000000000000302060000000000000002087
:102E7B00505078C89020202020200000000088604F
:102E8B00881030804008888860601000408808886F
:102E9B008888908080888820109080D8888888883F
:102EAB00888020888888888808400010500020007F
:102EBB00800008004878800000802000000000009F
:102ECB000000400000000000004020104000000007
:102EDB000000002050F88010A0404010A8200000F7
:102EEB0000089820082050F080108888606020F837
:102EFB0020080888888088808080882010A080A87F
:102F0B00C8888888888020888888508810408010DE
:102F1B0088001070B07068704088B060309020D01E
:102F2B00B070F068B070E08888888888F84020100E
:102F3B00A80000000000002000507020400040104E
:102F4B0070F800F80010A82010109008F02070788E
:102F5B000000400010106888F08088F0F0B8F8206E
:102F6B0010C080A8A888F088F070208888A820500E
:102F7B002040401000000008C8809888E088C820D6
:102F8B0010A020A8C8888898C88040888888508856
:102F9B0010802008100000000000000000F808401E
:102FAB00A8004010A82060000020C8202008F808C6
:102FBB0088408808606020F82020A8F888808880E6
:102FCB008088882010A08088988880A8A0082088F6
:102FDB0088A850204040201000000078888088F896
:102FEB004078882010C020A88888F07880704088AE
:102FFB0088A820782040201000000000000000006E
:10300B000050F09890002020202020006040882065
:10301B004088108888408810602010004000A888E5
:10302B00888890808088882090908088888880907D
:10303B009008208850A8882080401010000000883D
:10304B00888888804008882090A0208888888008FD
:10305B008008489850A850084040201000000000FD
:10306B0000000020005020186800104000004000B5
:10307B0060807070F87010707040706000400800D5
:10308B0080207088F070E0F8807088706088F88815
:10309B008870806888F0207020508820F870087045
:1030AB0000FC0078F07078704070887060907088C9
:1030BB008870800880F0306820508870F83020606D
:1030CB0000000000000000000000000000000000F5
:1030DB0000000000000000000000000000000000E5
:1030EB0000000000000000000000000000000000D5
:1030FB0000000000000000000000000000000000C5
:10310B0000000000000000000000000000000000B4
:10311B0000000000000000000000000000000000A4
:0A312B00000000000000000000009A
:00000001FF
